:100000000C942A000C943C000C943C000C943C0092
:100010000C943C000C943C000C943C000C943C0070
:100020000C943C000C943C000C9429010C9450015D
:100030000C9402010C943C000C943C000C943C0089
:100040000C94DB000C943C000C943C000C943C00A1
:100050000C943C0011241FBECFE5D8E0DEBFCDBF1D
:1000600020E0A0E6B0E001C01D92A637B207E1F79C
:100070000E948A010C94AF010C940000CF93DF938F
:10008000EC01892B09F449C08881803208F047C00F
:100090008981882319F0803209F043C08A8188233E
:1000A00021F0803411F0803CF1F58B818830E8F547
:1000B0008C81882381F0803271F0803461F0803649
:1000C00051F0803841F0803A31F0803C21F0803EA0
:1000D00011F0813E61F585E0FE01A6E6B0E00190F9
:1000E0000D928A95E1F780E886B917B82881898151
:1000F0009A81822B892B87B98B819C81913E41F01B
:10010000806290B79F7190BF20B79C81922B90BF67
:1001100096B1892B86B980E00BC081E009C081E0EF
:1001200007C081E005C081E003C081E001C081E03B
:10013000DF91CF91089586B1806486B980E00895FB
:10014000CF93DF93009799F1EC0180916A00813E93
:1001500011F40E949B00349BFECF1982188280917B
:10016000670081110DC084B190E09983888325B127
:1001700030E0322F2227822B932B9983888312C061
:1001800084B1829586958695837090E09983888363
:1001900025B130E0220F331F220F331F822B932B08
:1001A0009983888386B1806186B980E001C081E04F
:1001B000DF91CF9108951F920F920FB60F921124E5
:1001C0002F933F934F935F936F937F938F939F935F
:1001D000AF93BF93EF93FF93E0916B00F0916C00AE
:1001E0000995FF91EF91BF91AF919F918F917F9171
:1001F0006F915F914F913F912F910F900FBE0F9094
:100200001F9018951F920F920FB60F9211242F93E3
:100210003F934F935F936F937F938F939F93AF938E
:10022000BF93EF93FF93E0916000F0916100099517
:10023000FF91EF91BF91AF919F918F917F916F91BE
:100240005F914F913F912F910F900FBE0F901F9094
:1002500018951F920F920FB60F9211242F933F9370
:100260004F935F936F937F938F939F93AF93BF93BE
:10027000EF93FF93E0916D00F0916E000995FF916F
:10028000EF91BF91AF919F918F917F916F915F910E
:100290004F913F912F910F900FBE0F901F90189587
:1002A0001F920F920FB60F9211242F933F934F93EB
:1002B0005F936F937F938F939F93AF93BF93EF93CE
:1002C000FF938091620090916300A0916400B091CF
:1002D00065000196A11DB11D80936200909363009B
:1002E000A0936400B0936500E0917400F0917500F4
:1002F0000995FF91EF91BF91AF919F918F917F9160
:100300006F915F914F913F912F910F900FBE0F9082
:100310001F901895CF93DF93CDB7DEB727970FB611
:10032000F894DEBF0FBECDBF1A8219828FEF84BB57
:1003300081BB1ABA1B8287E08E831C8280EC8D837E
:1003400081EE8F83CE0103960E943E00CE0101967E
:100350000E94A00089819A8195BB82BBF7CFF89457
:02036000FFCFCD
:00000001FF
