:100000000C942A000C943C000C943C000C943C0092
:100010000C943C000C943C000C943C000C943C0070
:100020000C943C000C943C000C9445010C946C0125
:100030000C941E010C943C000C943C000C943C006D
:100040000C94F5000C943C000C943C000C943C0087
:100050000C943C0011241FBECFE5D8E0DEBFCDBF1D
:1000600020E0A0E6B0E001C01D92A637B207E1F79C
:100070000E94A6010C94CC010C940000CF93DF9356
:10008000EC01892B09F44BC08881803208F049C00B
:100090008981882319F0803209F045C08A8188233C
:1000A00029F0803419F0803C09F03FC08B81883002
:1000B000F0F58C81882381F0803271F0803461F01A
:1000C000803651F0803841F0803A31F0803C21F0A8
:1000D000803E11F0813E69F585E0FE01A8E6B0E0C2
:1000E00001900D928A95E1F717B8288189819A814C
:1000F000822B892B87B916B88B819C81913E41F068
:10010000806290B79F7190BF20B79C81922B90BF67
:1001100096B1892B86B980E886B980E00BC081E072
:1001200009C081E007C081E005C081E003C081E033
:1001300001C081E0DF91CF91089580916C00813EF4
:1001400029F0359903C086B1806286B986B1806492
:1001500086B980E00895369B02C0349BFCCF86B1FF
:100160008F7D86B980E00895CF93803278F43699F8
:10017000FECFC82F0E94AB0087B1807E8C2B87B941
:10018000C09368000E949D0080E001C081E0CF9193
:1001900008950097A1F0349BFECF24B130E0FC011C
:1001A0003183208345B150E0542F4427242B352B35
:1001B0003183208386B1806186B980E0089581E033
:1001C0000895CF93DF93009751F0603250F4EC0123
:1001D000862F0E94B400CE010E94C90003C081E0B6
:1001E00001C081E0DF91CF9108951F920F920FB669
:1001F0000F9211242F933F934F935F936F937F93AD
:100200008F939F93AF93BF93EF93FF93E091600021
:10021000F0916100309709F00995FF91EF91BF913E
:10022000AF919F918F917F916F915F914F913F918E
:100230002F910F900FBE0F901F9018951F920F9245
:100240000FB60F9211242F933F934F935F936F93A9
:100250007F938F939F93AF93BF93EF93FF93E0911F
:100260006200F09163000995FF91EF91BF91AF910A
:100270009F918F917F916F915F914F913F912F91BE
:100280000F900FBE0F901F9018951F920F920FB6F0
:100290000F9211242F933F934F935F936F937F930C
:1002A0008F939F93AF93BF93EF93FF93E0916D0074
:1002B000F0916E000995FF91EF91BF91AF919F91E1
:1002C0008F917F916F915F914F913F912F910F90FF
:1002D0000FBE0F901F9018951F920F920FB60F929E
:1002E00011242F933F934F935F936F937F938F933B
:1002F0009F93AF93BF93EF93FF938091640090918E
:100300006500A0916600B09167000196A11DB11D26
:100310008093640090936500A0936600B09367009B
:10032000E0917400F09175000995FF91EF91BF91F4
:10033000AF919F918F917F916F915F914F913F917D
:100340002F910F900FBE0F901F901895CF93DF93B2
:10035000CDB7DEB727970FB6F894DEBF0FBECDBF7F
:100360001A8219828FEF84BB81BB1ABA1B8287E085
:100370008E831C8280EC8D8381EE8F83CE01039669
:100380000E943E0060E0CE0101960E94E10089815A
:0C0390009A8195BB82BBF6CFF894FFCF9A
:00000001FF
