:100000000C942A000C9434000C9434000C943400AA
:100010000C9434000C9434000C9434000C94340090
:100020000C9434000C9434000C9434000C94340080
:100030000C9434000C9434000C9434000C94340070
:100040000C9434000C9434000C9434000C94340060
:100050000C94340011241FBECFE5D8E0DEBFCDBF25
:100060000E944B000C945F000C94000087B3806BDF
:1000700087BB87B38F7B87BB8DB180618DB98DB115
:1000800081608DB98DB180648DB908958FB9779BEA
:10009000FECF8FB108950E9436008FEF8ABBC0E07B
:1000A0002FE38DE093E0215080409040E1F700C0C5
:1000B00000008C2F0E9446008BBBCF5FF1CFF894DD
:0200C000FFCF70
:00000001FF
