:100000000C942A000C9447000C9447000C94470071
:100010000C9447000C9447000C9447000C94470044
:100020000C9447000C9447000C9472030C949903B1
:100030000C944B030C9447000C9447000C9447001D
:100040000C94CF020C9447000C9447000C9447008A
:100050000C94470011241FBECFE5D8E0DEBFCDBF12
:1000600010E0A0E6B0E0EAEFFEE002C005900D92DD
:10007000AC36B107D9F720E0ACE6B0E001C01D9284
:10008000A639B207E1F70E945F040C947B070C9439
:100090000000CF93DF9300D0CDB7DEB719820BC03D
:1000A0001A8203C09A819F5F9A839A819436D0F313
:1000B00099819F5F99839981981790F30F900F9082
:1000C000DF91CF91089541E063E086E390E00E94E4
:1000D000310382E30E94490040E063E086E390E060
:1000E0000E9431030895CF93C82F40E061E086E37A
:1000F00090E00E94310340E062E086E390E00E94DD
:10010000310340E063E086E390E00E9431034C2F2E
:10011000407150E0559547955595479555954795AC
:100120005595479564E086E390E00E9431034C2F9B
:10013000407250E05595479555954795559547958B
:10014000559547955595479565E086E390E00E9463
:1001500031034C2F407450E0042E452F000C441FF7
:10016000550B000C441F551F66E086E390E00E948B
:1001700031034C2F441F4427441F67E086E390E07F
:100180000E9431030E9463004C2F417064E086E3BB
:1001900090E00E9431034C2F427050E055954795F6
:1001A00065E086E390E00E9431034C2F447050E0FC
:1001B000559547955595479566E086E390E00E94F2
:1001C0003103C8704C2F50E055954795559547958C
:1001D0005595479567E086E390E00E9431030E94C1
:1001E0006300CF9108951F93CF93DF9384E10E9422
:1001F0004900CCE7D0E011E018831983BE0186E303
:1002000090E00E94F80282E088831983BE0186E3B1
:1002100090E00E94F80283E088831983BE0186E3A0
:1002200090E00E94F80240E063E086E390E00E94E4
:10023000310340E061E086E390E00E94310340E05A
:1002400062E086E390E00E9431038FE00E94490063
:1002500084E088831983BE0186E390E00E94F8025F
:1002600085E088831983BE0186E390E00E94F8024E
:1002700086E088831983BE0186E390E00E94F8023D
:1002800087E088831983BE0186E390E00E94F8022C
:1002900085E00E94490082E00E94730088E20E948B
:1002A000730086E00E94730080E80E9473008FE074
:1002B0000E947300DF91CF911F910895CF93DF9338
:1002C000603198F4C62FD82F811105C080E8860FC1
:1002D0000E94730006C0813021F480EC860F0E94DA
:1002E0007300C0936D00D0936C00DF91CF9108959F
:1002F00081E00E94730010926D0010926C000895CE
:1003000080916D00803180F090916C0091110CC053
:1003100060E081E00E945E0110926D0080916C00AF
:100320008F5F80936C000895803168F080916C003D
:10033000813049F40E94780180E80E947300109295
:100340006D0010926C000895CF93C82F0E94800119
:1003500041E061E086E390E00E94310340E062E02A
:1003600086E390E00E94310340E063E086E390E0A2
:100370000E9431034C2F407150E05595479555959B
:100380004795559547955595479564E086E390E0E8
:100390000E9431034C2F407250E05595479555957A
:1003A000479555954795559547955595479565E0DA
:1003B00086E390E00E9431034C2F407450E0042EFD
:1003C000452F000C441F550B000C441F551F66E0C1
:1003D00086E390E00E9431034C2F441F4427441FC2
:1003E00067E086E390E00E9431030E9463004C2F97
:1003F000417064E086E390E00E9431034C2F42702C
:1004000050E05595479565E086E390E00E94310302
:100410004C2F447050E0559547955595479566E0AB
:1004200086E390E00E943103C8704C2F50E0559550
:100430004795559547955595479567E086E390E034
:100440000E9431030E94630080916D008F5F809352
:100450006D00CF910895CF93DF93EC0103C02196F7
:100460000E94A40188818111FACFDF91CF91089574
:10047000CF93DF93EC01892B09F44DC08881803242
:1004800008F04BC08981882319F0803209F047C0F9
:100490008A81882329F0803419F0803C09F041C01A
:1004A0008B81883008F03FC08C81882381F08032B6
:1004B00071F0803461F0803651F0803841F0803A3C
:1004C00031F0803C21F0803E11F0813E71F585E0F5
:1004D000FE01AEE7B0E001900D928A95E1F717B802
:1004E000288189819A81822B892B87B916B88B81C3
:1004F0009C81913E41F0806290B79F7190BF20B780
:100500009C81922B90BF96B1892B86B986B1806869
:1005100086B980E00BC081E009C081E007C081E0BE
:1005200005C081E003C081E001C081E0DF91CF918F
:10053000089580918200813E29F0359903C086B1EB
:10054000806286B986B1806486B980E0089500979C
:10055000A1F0349BFECF24B130E0FC013183208335
:1005600045B150E0542F4427242B352B3183208371
:1005700086B1806186B980E0089581E00895009792
:1005800061F090936F0080936E008FB780688FBF8B
:1005900086B1886086B980E0089581E008951F9251
:1005A0000F920FB60F9211242F933F934F935F93A7
:1005B0006F937F938F939F93AF93BF93EF93FF932B
:1005C000E0916E00F0916F00309709F00995FF916E
:1005D000EF91BF91AF919F918F917F916F915F91BB
:1005E0004F913F912F910F900FBE0F901F90189534
:1005F000DC01FB018181813079F411962C911197F6
:1006000081E090E0008002C0880F991F0A94E2F711
:10061000822B11968C93089511968C91119721E05D
:1006200030E0008002C0220F331F0A94E2F72095C9
:10063000282311962C9311978181823089F480B7F9
:100640008E7F80BF12962C91129781E090E00080FF
:1006500002C0880F991F0A94E2F7822B12968C939E
:100660000895FC01413059F4228181E090E002C0FC
:10067000880F991F6A95E2F7822B828308959281F1
:1006800021E030E002C0220F331F6A95E2F7209587
:100690002923228308951F920F920FB60F921124DF
:1006A0002F933F934F935F936F937F938F939F937A
:1006B000AF93BF93EF93FF93E0917000F0917100BF
:1006C0000995FF91EF91BF91AF919F918F917F918C
:1006D0006F915F914F913F912F910F900FBE0F90AF
:1006E0001F9018951F920F920FB60F9211242F93FF
:1006F0003F934F935F936F937F938F939F93AF93AA
:10070000BF93EF93FF93E0918300F09184000995EC
:10071000FF91EF91BF91AF919F918F917F916F91D9
:100720005F914F913F912F910F900FBE0F901F90AF
:1007300018951F920F920FB60F9211242F933F938B
:100740004F935F936F937F938F939F93AF93BF93D9
:10075000EF93FF938091720090917300A0917400C9
:10076000B09175000196A11DB11D80937200909308
:100770007300A0937400B0937500E0918A00F0912B
:100780008B000995FF91EF91BF91AF919F918F9150
:100790007F916F915F914F913F912F910F900FBE7D
:1007A0000F901F901895CF938AE790E00E94A702C0
:1007B00080917A0090917B0095BB82BB2091600074
:1007C000309161008217930709F46DC00E9478018F
:1007D00082E690E00E942B0220917A0030917B000B
:1007E000A4E6B0E00E948204DC01CB01072E7AE08F
:1007F000B695A795979587957A95D1F7702D909393
:1008000079008093780068E080E00E945E0180912A
:1008100079008F93809178008F9389E690E09F9381
:100820008F938CE890E09F938F930E9491048CE8C3
:1008300090E00E942B026AE080E00E945E0185E267
:100840000E94A401809178009091790041E1489F35
:100850009001499F300D112436952795369527959F
:10086000ABE7B4E10E948204969587959093770058
:100870008093760060E081E00E945E010F900F900F
:100880000F900F900F900F90C0E004C08FEF0E9468
:10089000A401CF5F8C2F90E02091760030917700FB
:1008A0008217930798F380917A0090917B00909340
:1008B0006100809360000E949902CF910895CF93C8
:1008C000DF9300D000D01F92CDB7DEB71ABA8FEFFA
:1008D00084BB81BB0E94F300198287E08C831A825B
:1008E00080E48B8381EE8D83CE0101960E943802D5
:1008F00083ED93E00E94BF028CE00E9473000E948F
:100900009902FFCFA29FB001B39FC001A39F700DBA
:10091000811D1124911DB29F700D811D1124911D07
:100920000895AEE0B0E0E7E9F4E00C9452070D89D9
:100930001E8986E08C831A8309838FEF9FE79E834D
:100940008D83AE01475E5F4F6F89788DCE01019632
:100950000E94B304EF81F885E00FF11F10822E96FC
:10096000E4E00C946E07ABE0B0E0E9EBF4E00C944B
:1009700044076C017B018A01FC0117821682838186
:1009800081FFCCC1CE0101963C01F6019381F701B4
:1009900093FD859193FF81917F01882309F4BAC16A
:1009A000853239F493FD859193FF81917F018532E2
:1009B00029F4B60190E00E94AA06E7CF912C212CE1
:1009C000312CFFE1F315D8F08B3279F038F4803216
:1009D00079F08332A1F4232D20611DC08D3261F0A6
:1009E000803369F4232D216016C0832D8260382E58
:1009F000E32DE4603E2E2AC0F32DF8601DC037FCC5
:100A00002DC020ED280F2A3040F08E32B9F436FC8C
:100A100081C1232D2064322E19C036FE06C08AE023
:100A2000989E200D1124922E11C0EAE02E9E200DDA
:100A30001124222EF32DF0623F2E08C08C3621F4B3
:100A4000832D8068382E02C0883641F4F70193FD6B
:100A5000859193FF81917F018111B3CF982F9F7D65
:100A60009554933028F40C5F1F4F9FE399830DC07A
:100A7000833631F0833771F0833509F059C021C0D6
:100A8000F801808189830E5F1F4F88248394912C05
:100A9000530113C02801F2E04F0E511CF801A08051
:100AA000B18036FE03C0692D70E002C06FEF7FEFAA
:100AB000C5010E949F064C018201F32DFF773F2E56
:100AC00016C0280122E0420E511CF801A080B1801E
:100AD00036FE03C0692D70E002C06FEF7FEFC501E5
:100AE0000E9494064C01F32DF0683F2E820133FCE6
:100AF0001BC0822D90E088169906B0F4B60180E202
:100B000090E00E94AA062A94F4CFF50137FC859163
:100B100037FE81915F01B60190E00E94AA06211084
:100B20002A9421E0821A91088114910471F7E8C097
:100B3000843611F0893641F5F80137FE07C060812F
:100B40007181828193810C5F1F4F08C06081718128
:100B5000072E000C880B990B0E5F1F4FF32DFF76AD
:100B60003F2E97FF09C090958095709561957F4FB6
:100B70008F4F9F4FF0683F2E2AE030E0A3010E9484
:100B8000E606882E861845C0853731F4232D2F7E42
:100B9000B22E2AE030E025C0932D997FB92E8F36F2
:100BA000C1F018F4883579F0B5C0803719F088376E
:100BB00021F0B0C0E92FE061BE2EB4FE0DC0FB2DC8
:100BC000F460BF2E09C034FE0AC0292F2660B22E61
:100BD00006C028E030E005C020E130E002C020E19E
:100BE00032E0F801B7FE07C0608171818281938194
:100BF0000C5F1F4F06C06081718180E090E00E5F46
:100C00001F4FA3010E94E606882E8618FB2DFF7752
:100C10003F2E36FE0DC0232D2E7FA22E891458F4B0
:100C200034FE0BC032FC09C0832D8E7EA82E05C079
:100C3000B82CA32C03C0B82C01C0B92CA4FE0FC043
:100C4000FE01E80DF11D8081803321F49A2D997EFB
:100C5000A92E09C0A2FE06C0B394B39404C08A2D85
:100C6000867809F0B394A3FC11C0A0FE06C0B214AC
:100C700088F4280C922C9B180EC0B21460F4B601B4
:100C800080E290E00E94AA06B394F7CFB21418F461
:100C90002B1802C0982C212CA4FE10C0B60180E3B2
:100CA00090E00E94AA06A2FE17C0A1FC03C088E73C
:100CB00090E002C088E590E0B6010CC08A2D8678ED
:100CC00059F0A1FE02C08BE201C080E2A7FC8DE2D8
:100CD000B60190E00E94AA06891438F4B60180E3B8
:100CE00090E00E94AA069A94F7CF8A94F301E80D47
:100CF000F11D8081B60190E00E94AA068110F5CF17
:100D0000222009F442CEB60180E290E00E94AA06B9
:100D10002A94F6CFF6018681978102C08FEF9FEF6C
:100D20002B96E2E10C946007FC0105906150704045
:100D30000110D8F7809590958E0F9F1F0895FC01A4
:100D40006150704001900110D8F7809590958E0FFA
:100D50009F1F08950F931F93CF93DF93FB01238170
:100D600021FD03C08FEF9FEF2CC022FF16C04681EC
:100D70005781248135814217530744F4A081B18102
:100D80009D012F5F3F4F318320838C9326813781D4
:100D90002F5F3F4F3783268314C08B01EC01FB018B
:100DA0000084F185E02D0995892BE1F6D80116968E
:100DB0008D919C911797019617969C938E931697F9
:100DC000CE01DF91CF911F910F910895FA01AA27CB
:100DD000283051F1203181F1E8946F936E7F6E5F7E
:100DE0007F4F8F4F9F4FAF4FB1E03ED0B4E03CD02C
:100DF000670F781F891F9A1FA11D680F791F8A1F0F
:100E0000911DA11D6A0F711D811D911DA11D20D075
:100E100009F468943F912AE0269F11243019305D2F
:100E20003193DEF6CF010895462F4770405D419320
:100E3000B3E00FD0C9F7F6CF462F4F70405D4A336D
:100E400018F0495D31FD4052419302D0A9F7EACF35
:100E5000B4E0A6959795879577956795BA95C9F764
:100E600000976105710508959B01AC010A2E069457
:100E70005795479537952795BA95C9F7620F731F10
:100E8000841F951FA01D08952F923F924F925F924D
:100E90006F927F928F929F92AF92BF92CF92DF928A
:100EA000EF92FF920F931F93CF93DF93CDB7DEB7EF
:100EB000CA1BDB0B0FB6F894DEBF0FBECDBF099483
:100EC0002A88398848885F846E847D848C849B84DA
:100ED000AA84B984C884DF80EE80FD800C811B81E8
:100EE000AA81B981CE0FD11D0FB6F894DEBF0FBE17
:0A0EF000CDBFED010895F894FFCF87
:0C0EFA00FFFF506572633A200025750070
:00000001FF
