:100000000C942A000C9434000C9434000C943400AA
:100010000C9434000C9434000C9434000C94340090
:100020000C9434000C9434000C9434000C94340080
:100030000C9434000C9434000C9434000C94340070
:100040000C9434000C9434000C9434000C94340060
:100050000C94340011241FBECFE5D8E0DEBFCDBF25
:100060000E9436000C9469000C9400008FEF8ABB4C
:1000700081B38E7F81BB20E041E0809BFECF442393
:1000800081F031E0320F81E090E002C0880F991FCB
:100090002A95E2F79BB3892B8BBB383099F0232F3D
:1000A00015C0215081E090E0022E02C0880F991FF8
:1000B0000A94E2F7809590959BB389238BBB22230A
:1000C00021F004C0232F40E001C041E08099FECF21
:0600D000D4CFF894FFCF2D
:00000001FF
