S01B0000536C6176655F547261736E6D69745F4C6162322E73726563BD
S11300000C942A000C9434000C9434000C943400A6
S11300100C9434000C9434000C9434000C9434008C
S11300200C9434000C9434000C9434000C9434007C
S11300300C9434000C9434000C9434000C9434006C
S11300400C9434000C9434000C9434000C9434005C
S11300500C94340011241FBECFE5D8E0DEBFCDBF21
S11300600E944A000C9458000C94000082B9089530
S113007020E4829FC0011124846886BF06B607FE6F
S1130080FDCF83B1089583B984E886BF06B607FE21
S1130090FDCF089580ED0E943600C0E081E00E940B
S11300A03800D1E0DC0F8C2F0E944300CD2FF6CF17
S10700B0F894FFCFEE
S9030000FC
