:100000000C942A000C9447000C9447000C94470071
:100010000C9447000C9447000C9447000C94470044
:100020000C9447000C9447000C9447000C94470034
:100030000C9447000C9447000C9447000C94470024
:100040000C9447000C9447000C9447000C94470014
:100050000C94470011241FBECFE5D8E0DEBFCDBF12
:1000600010E0A0E6B0E0EEECF2E002C005900D92E8
:10007000A037B107D9F720E0A0E7B0E001C01D929A
:10008000A237B207E1F70E9453010C9465010C946A
:10009000000081B3807F81BB81B3806F81BB8FEF14
:1000A00082BB089530E045C082B3806F82BB22B32B
:1000B000E32FF0E0AF014C5F5F4F81E090E002C0C2
:1000C000880F991F4A95E2F78095822382BB20E032
:1000D0002DC080B3622F70E041E050E0022E02C0DC
:1000E000440F551F0A94E2F790E084239523022ED3
:1000F00002C0959587950A94E2F7892BB1F480B3F5
:1001000090E084239523062E02C0959587950A9446
:10011000E2F7892BA1F3660F771F660F771FE60FB3
:10012000F71FE05AFF4F808108952F5F243088F237
:100130003F5F343008F4B8CF8EE4089588B3886008
:1001400088BB2FE788E391E0215080409040E1F7A1
:1001500000C0000088B3877F88BB0895CF93C82F65
:1001600088B3817F88BB8BB38F709C2F907F892B46
:100170008BBB0E949E002BB330E1C39FC0011124B2
:10018000922F9F70892B8BBB0E949E00CF91089568
:1001900081E00E94AE001092710008958FE39CE907
:1001A0000197F1F700C0000087B38E6087BB88B36A
:1001B000817F88BB8FE295E70197F1F700C00000CF
:1001C0000E94C8008AB3806F8ABB8FE097E20197D4
:1001D000F1F700C0000082E00E94AE0088E20E94B9
:1001E000AE0086E00E94AE0080E80E94AE008FE084
:1001F0000E94AE000895603168F4811105C080E866
:10020000860F0E94AE000895813021F480EC860FA5
:100210000E94AE00089580917100803180F090912D
:10022000700091110CC060E081E00E94FB00109210
:100230007100809170008F5F80937000089580310D
:1002400068F080917000813049F40E94C80080E815
:100250000E94AE0010927100109270000895CF932A
:10026000C82F0E940B0188B38B7F88BB88B3826044
:1002700088BB8BB38F709C2F907F892B8BBB0E9488
:100280009E002BB330E1C39FC0011124922F9F70B9
:10029000892B8BBB0E949E00809171008F5F8093A1
:1002A0007100CF9108950E94CE000E94C8000E9464
:1002B00049000E9452008E34E1F3833419F40E9405
:0E02C000C800F7CF0E942F01F4CFF894FFCFB3
:1002CE003738392F3435362A3132332D43303D2BE2
:00000001FF
