:100000000C942A000C943C000C943C000C943C0092
:100010000C943C000C943C000C943C000C943C0070
:100020000C943C000C943C000C942B010C94520159
:100030000C9404010C943C000C943C000C943C0087
:100040000C94DD000C943C000C943C000C943C009F
:100050000C943C0011241FBECFE5D8E0DEBFCDBF1D
:1000600020E0A0E6B0E001C01D92A637B207E1F79C
:100070000E94A0010C94BD010C940000CF93DF936B
:10008000EC01892B09F449C08881803208F047C00F
:100090008981882319F0803209F043C08A8188233E
:1000A00021F0803411F0803CF1F58B818830E8F547
:1000B0008C81882381F0803271F0803461F0803649
:1000C00051F0803841F0803A31F0803C21F0803EA0
:1000D00011F0813E61F585E0FE01A6E6B0E00190F9
:1000E0000D928A95E1F780E886B917B82881898151
:1000F0009A81822B892B87B98B819C81913E41F01B
:10010000806290B79F7190BF20B79C81922B90BF67
:1001100096B1892B86B980E00BC081E009C081E0EF
:1001200007C081E005C081E003C081E001C081E03B
:10013000DF91CF91089586B1806486B980E00895FB
:10014000FC01892B41F1118210828091670081119D
:100150000EC084B190E09183808325B130E0322FCE
:100160002227822B932B9183808380E0089524B1F2
:10017000229526952695237030E03183208385B122
:1001800090E0880F991F880F991F282B392B3183F6
:10019000208380E0089581E00895009761F09093B6
:1001A0006C0080936B008FB780688FBF86B18860CA
:1001B00086B980E0089581E008951F920F920FB6EE
:1001C0000F9211242F933F934F935F936F937F93DD
:1001D0008F939F93AF93BF93EF93FF93E0916B0047
:1001E000F0916C000995FF91EF91BF91AF919F91B4
:1001F0008F917F916F915F914F913F912F910F90D0
:100200000FBE0F901F9018951F920F920FB60F926E
:1002100011242F933F934F935F936F937F938F930B
:100220009F93AF93BF93EF93FF93E0916000F091A2
:1002300061000995FF91EF91BF91AF919F918F91CF
:100240007F916F915F914F913F912F910F900FBED2
:100250000F901F9018951F920F920FB60F921124B6
:100260002F933F934F935F936F937F938F939F93BE
:10027000AF93BF93EF93FF93E0916D00F0916E0009
:100280000995FF91EF91BF91AF919F918F917F91D0
:100290006F915F914F913F912F910F900FBE0F90F3
:1002A0001F9018951F920F920FB60F9211242F9343
:1002B0003F934F935F936F937F938F939F93AF93EE
:1002C000BF93EF93FF938091620090916300A091A0
:1002D0006400B09165000196A11DB11D809362007C
:1002E00090936300A0936400B0936500E091740064
:1002F000F09175000995FF91EF91BF91AF919F919A
:100300008F917F916F915F914F913F912F910F90BE
:100310000FBE0F901F901895CF93DF9300D0CDB7ED
:10032000DEB71A821982CE0101960E94A00089814F
:100330009A8195BB82BB0F900F90DF91CF9108956A
:10034000CF93DF9300D000D01F92CDB7DEB78FEFF1
:1003500084BB81BB1ABA198287E08C831A8280EC35
:100360008B831D82CE0101960E943E008CE891E0B5
:0E0370000E94CD000E949B00FFCFF894FFCFAB
:00000001FF
