:100000000C942A000C9434000C9434000C943400AA
:100010000C9434000C9434000C9434000C94340090
:100020000C9434000C9434000C9434000C94340080
:100030000C9434000C9434000C9434000C94340070
:100040000C9434000C9434000C9434000C94340060
:100050000C94340011241FBECFE5D8E0DEBFCDBF25
:100060000E9456000C9460000C94000082B9089520
:1000700096B740E4849F90011124922B946896BF18
:1000800006B607FEFDCF01C091B191B19036E1F700
:1000900086B7282B246826BF06B607FEFDCF01C011
:1000A00081B181B18038E1F783B108958FEF8ABBC8
:1000B00080ED0E94360081E00E9438008BBBFBCFB0
:0400C000F894FFCFE2
:00000001FF
