:100000000C942A000C9434000C9434000C943400AA
:100010000C9434000C9434000C9434000C94340090
:100020000C9434000C9434000C9434000C94340080
:100030000C9434000C9434000C9434000C94340070
:100040000C9434000C9434000C9434000C94340060
:100050000C94340011241FBECFE5D8E0DEBFCDBF25
:100060000E9456000C947E000C94000087B3806BB5
:1000700087BB8DB180618DB98DB181608DB98DB136
:1000800080648DB908958FB9779BFECF0895CF9383
:10009000C62F98B39F7E98BB0E9443008C2F0E946E
:1000A000430088B3806188BBCF9108950E943600D9
:1000B0006FEF89E00E9447006FEF8AE00E944700DF
:1000C00067EF8BE00E94470061E08CE00E944700F0
:1000D00060E0C1E007C0D1E0D60F8C2F0E9447003E
:1000E000CF5F6D2FC930B8F32FE38DE093E021503F
:1000F00080409040E1F700C00000EBCFF894FFCFC4
:00000001FF
