:100000000C942A000C9434000C9434000C943400AA
:100010000C9434000C9434000C9434000C94340090
:100020000C9434000C9434000C9434000C94340080
:100030000C9434000C9434000C9434000C94340070
:100040000C9434000C9434000C9434000C94340060
:100050000C94340011241FBECFE5D8E0DEBFCDBF25
:100060000E9445000C9450000C94000087B38064FB
:1000700087BB87B38F7487BB8DB180648DB90895BA
:100080008FB9779BFECF8FB108950E9436008FEF16
:100090008ABBCFEF8C2F0E9440008BBBC150FACFA0
:0400A000F894FFCF02
:00000001FF
