:100000000C942A000C9434000C9434000C943400AA
:100010000C9434000C9434000C9434000C94340090
:100020000C9434000C9434000C9434000C94340080
:100030000C9434000C9434000C9434000C94340070
:100040000C9434000C9434000C9434000C94340060
:100050000C94340011241FBECFE5D8E0DEBFCDBF25
:100060000E9436000C946B000C9400008FEF8ABB4A
:1000700020E041E0442381F031E0320F81E090E064
:1000800002C0880F991F2A95E2F79BB3892B8BBB7F
:10009000383099F0232F15C0215081E090E0022ED6
:1000A00002C0880F991F0A94E2F7809590959BB340
:1000B00089238BBB222321F004C0232F40E001C001
:1000C00041E03FEF84E39CE0315080409040E1F715
:0A00D00000C00000CFCFF894FFCF6E
:00000001FF
