:100000000C942A000C943C000C943C000C943C0092
:100010000C943C000C943C000C943C000C943C0070
:100020000C943C000C943C000C9424010C944B0167
:100030000C94FD000C943C000C943C000C943C008F
:100040000C94D6000C943C000C943C000C943C00A6
:100050000C943C0011241FBECFE5D8E0DEBFCDBF1D
:1000600020E0A0E6B0E001C01D92A637B207E1F79C
:100070000E949D010C94BA010C940000CF93DF9371
:10008000EC01892B09F44DC08881803208F04BC007
:100090008981882319F0803209F047C08A8188233A
:1000A00029F0803419F0803C09F041C08B81883000
:1000B00008F03FC08C81882381F0803271F0803459
:1000C00061F0803651F0803841F0803A31F0803C68
:1000D00021F0803E11F0813E71F585E0FE01A6E63B
:1000E000B0E001900D928A95E1F780E886B917B8E3
:1000F000288189819A81822B892B87B92B8196B19E
:10010000987F96B986B1822B86B98C81813EA9F001
:1001100080B78F7180BF90B78C81892B80BF80E0C2
:100120000DC081E00BC081E009C081E007C081E023
:1001300005C081E003C081E001C080E0DF91CF9184
:10014000089580916A00813E19F086B1806286B977
:1001500080916A00813E11F0811103C086B18064F4
:1001600086B980E00895009779F024B130E0FC0171
:100170003183208345B150E0542F4427242B352B65
:100180003183208380E0089581E00895009761F035
:1001900090936C0080936B008FB780688FBF86B19F
:1001A000886086B980E0089581E008951F920F92DB
:1001B0000FB60F9211242F933F934F935F936F933A
:1001C0007F938F939F93AF93BF93EF93FF93E091B0
:1001D0006B00F0916C000995FF91EF91BF91AF9189
:1001E0009F918F917F916F915F914F913F912F914F
:1001F0000F900FBE0F901F9018951F920F920FB681
:100200000F9211242F933F934F935F936F937F939C
:100210008F939F93AF93BF93EF93FF93E091600011
:10022000F09161000995FF91EF91BF91AF919F917E
:100230008F917F916F915F914F913F912F910F908F
:100240000FBE0F901F9018951F920F920FB60F922E
:1002500011242F933F934F935F936F937F938F93CB
:100260009F93AF93BF93EF93FF93E0916D00F09155
:100270006E000995FF91EF91BF91AF919F918F9182
:100280007F916F915F914F913F912F910F900FBE92
:100290000F901F9018951F920F920FB60F92112476
:1002A0002F933F934F935F936F937F938F939F937E
:1002B000AF93BF93EF93FF9380916200909163009F
:1002C000A0916400B09165000196A11DB11D8093BD
:1002D000620090936300A0936400B0936500E09186
:1002E0007400F09175000995FF91EF91BF91AF9166
:1002F0009F918F917F916F915F914F913F912F913E
:100300000F900FBE0F901F901895CF93DF9300D0E2
:10031000CDB7DEB71A821982CE0101960E94B300D2
:1003200089819A81969587959695879595BB82BB8D
:100330000F900F90DF91CF910895CF93DF9300D06E
:1003400000D01F92CDB7DEB78FEF84BB81BB1ABA46
:10035000198287E08C831A8280EC8B831D82CE0108
:1003600001960E943E0085E891E00E94C6000E942E
:08037000A100FFCFF894FFCFBC
:00000001FF
