:100000000C942A000C943C000C943C000C943C0092
:100010000C943C000C943C000C943C000C943C0070
:100020000C943C000C943C000C9425010C944C0165
:100030000C94FE000C943C000C943C000C943C008E
:100040000C94D5000C943C000C943C000C943C00A7
:100050000C943C0011241FBECFE5D8E0DEBFCDBF1D
:1000600020E0A0E6B0E001C01D92A637B207E1F79C
:100070000E949E010C94BB010C940000CF93DF936F
:10008000EC01892B09F44DC08881803208F04BC007
:100090008981882319F0803209F047C08A8188233A
:1000A00029F0803419F0803C09F041C08B81883000
:1000B00008F03FC08C81882381F0803271F0803459
:1000C00061F0803651F0803841F0803A31F0803C68
:1000D00021F0803E11F0813E71F585E0FE01A8E639
:1000E000B0E001900D928A95E1F717B828818981D7
:1000F0009A81822B892B87B916B88B819C81913E7E
:1001000041F0806290B79F7190BF20B79C81922B85
:1001100090BF96B1892B86B986B1806886B980E098
:100120000BC081E009C081E007C081E005C081E02B
:1001300003C081E001C081E0DF91CF9108958091FB
:100140006C00813E29F0359903C086B1806286B982
:1001500086B1806486B980E008950097A1F0349B51
:10016000FECF24B130E0FC013183208345B150E063
:10017000542F4427242B352B3183208386B1806173
:1001800086B980E0089581E00895009761F090932A
:100190006100809360008FB780688FBF86B18860F0
:1001A00086B980E0089581E008951F920F920FB6FE
:1001B0000F9211242F933F934F935F936F937F93ED
:1001C0008F939F93AF93BF93EF93FF93E091600062
:1001D000F0916100309709F00995FF91EF91BF917F
:1001E000AF919F918F917F916F915F914F913F91CF
:1001F0002F910F900FBE0F901F9018951F920F9286
:100200000FB60F9211242F933F934F935F936F93E9
:100210007F938F939F93AF93BF93EF93FF93E0915F
:100220006200F09163000995FF91EF91BF91AF914A
:100230009F918F917F916F915F914F913F912F91FE
:100240000F900FBE0F901F9018951F920F920FB630
:100250000F9211242F933F934F935F936F937F934C
:100260008F939F93AF93BF93EF93FF93E0916D00B4
:10027000F0916E000995FF91EF91BF91AF919F9121
:100280008F917F916F915F914F913F912F910F903F
:100290000FBE0F901F9018951F920F920FB60F92DE
:1002A00011242F933F934F935F936F937F938F937B
:1002B0009F93AF93BF93EF93FF93809164009091CE
:1002C0006500A0916600B09167000196A11DB11D67
:1002D0008093640090936500A0936600B0936700DC
:1002E000E0917400F09175000995FF91EF91BF9135
:1002F000AF919F918F917F916F915F914F913F91BE
:100300002F910F900FBE0F901F901895CF93DF93F2
:1003100000D0CDB7DEB71A821982CE0101960E94B5
:10032000AD0089819A81969587959695879595BB1D
:1003300082BB0F900F90DF91CF910895CF93DF9301
:1003400000D000D01F92CDB7DEB78FEF84BB81BB4A
:100350001ABA198287E08C831A8280EC8B831D8203
:10036000CE0101960E943E0086E891E00E94C50001
:0A0370000E949F00FFCFF894FFCF1A
:00000001FF
